:100000000C9434000C94520A0C9451000C9451003E
:100010000C9451000C9451000C9451000C9451001C
:100020000C9451000C9451000C9451000C9451000C
:100030000C9451000C9451000C9451000C945100FC
:100040000C9451000C9451000C9451000C945100EC
:100050000C9451000C9451000C9451000C945100DC
:100060000C9451000C94510011241FBECFEFD8E026
:10007000DEBFCDBF11E0A0E0B1E0E6E7F1E202C0F3
:1000800005900D92AC34B107D9F711E0ACE4B1E0C2
:1000900001C01D92AE34B107E1F70E9434090C94FF
:1000A000B9100C940000DF93CF93CDB7DEB76C97F7
:1000B0000FB6F894DEBF0FBECDBFEAE2F0E08FEFDF
:1000C000808380E090E0A0E7B1E4898F9A8FAB8FC6
:1000D000BC8F698D7A8D8B8D9C8D20E030E04AE756
:1000E00055E40E94520CDC01CB018D8B9E8BAF8BB3
:1000F000B88F6D897E898F89988D20E030E040E847
:100100005FE30E94580E88232CF481E090E09C8BE2
:100110008B8B3FC06D897E898F89988D20E03FEF62
:100120004FE757E40E94F80D18164CF5698D7A8D4B
:100130008B8D9C8D20E030E040E251E40E94520C17
:10014000DC01CB01BC01CD010E947C0ADC01CB01AA
:100150009C8B8B8B0FC080E991E09A8B898B89896E
:100160009A890197F1F79A8B898B8B899C890197E2
:100170009C8B8B8B8B899C89009769F714C06D8948
:100180007E898F89988D0E947C0ADC01CB019C8B33
:100190008B8B8B899C89988B8F878F85988901970A
:1001A000F1F7988B8F8782E090E00E94620188E2ED
:1001B00090E00E9462018CE090E00E94620186E083
:1001C00090E00E94620181E090E00E94620180E084
:1001D00090E0A0E0B0E48B879C87AD87BE876B85FD
:1001E0007C858D859E8520E030E04AE755E40E94BD
:1001F000520CDC01CB018F839887A987BA876F8166
:10020000788589859A8520E030E040E85FE30E94A8
:10021000580E88232CF481E090E09E838D833FC0AC
:100220006F81788589859A8520E03FEF4FE757E415
:100230000E94F80D18164CF56B857C858D859E8582
:1002400020E030E040E251E40E94520CDC01CB019E
:10025000BC01CD010E947C0ADC01CB019E838D8311
:100260000FC080E991E09C838B838B819C810197F7
:10027000F1F79C838B838D819E8101979E838D8373
:100280008D819E81009769F714C06F81788589857B
:100290009A850E947C0ADC01CB019E838D838D812F
:1002A0009E819A83898389819A810197F1F79A8344
:1002B00089836C960FB6F894DEBF0FBECDBFCF9189
:1002C000DF9108950F931F93DF93CF93CDB7DEB7E0
:1002D000C755D0400FB6F894DEBF0FBECDBFFE01AC
:1002E000E95AFF4F8083ABE2B0E0EBE2F0E08081BF
:1002F000982F9F70FE01E95AFF4F8081807F892BE4
:100300008C93ABE2B0E0EBE2F0E080818E7F8C93E7
:10031000ABE2B0E0EBE2F0E0808182608C93FE0122
:10032000ED5AFF4F80E090E0A0E8BFE38083918327
:10033000A283B3838E01015B1F4FFE01ED5AFF4F75
:1003400060817181828193812BEA3AEA4AEA50E422
:100350000E94520CDC01CB01F80180839183A283BF
:10036000B383FE01E15BFF4F6081718182819381E4
:1003700020E030E040E85FE30E94580E882334F428
:10038000FE01E25BFF4F81E08083E0C0FE01E15BA4
:10039000FF4F608171818281938120E030E04FE7DF
:1003A00053E40E94F80D18160CF0C0C0FE01ED5A7F
:1003B000FF4F608171818281938120E030E04AE7C4
:1003C00054E40E944C0DDC01CB01FE01E65BFF4FC3
:1003D00080839183A283B3838E010A5B1F4FFE014A
:1003E000E65BFF4F608171818281938120E030E084
:1003F0004AE755E40E94520CDC01CB01F8018083EE
:100400009183A283B383FE01EA5BFF4F6081718118
:100410008281938120E030E040E85FE30E94580E43
:10042000882344F4FE01EC5BFF4F81E090E0918370
:10043000808364C0FE01EA5BFF4F6081718182812D
:10044000938120E03FEF4FE757E40E94F80D181624
:100450000CF043C0FE01E65BFF4F60817181828139
:10046000938120E030E040E251E40E94520CDC0134
:10047000CB018E010C5B1F4FBC01CD010E947C0A99
:10048000DC01CB01F801918380831FC0FE01EE5B8C
:10049000FF4F80E991E091838083FE01EE5BFF4F87
:1004A000808191810197F1F7FE01EE5BFF4F91830F
:1004B0008083DE01AC5BBF4FFE01EC5BFF4F8081B0
:1004C0009181019711969C938E93FE01EC5BFF4FF7
:1004D000808191810097D1F642C08E010C5B1F4F45
:1004E000FE01EA5BFF4F60817181828193810E94EE
:1004F0007C0ADC01CB01F80191838083DE01A05CE2
:10050000BF4FFE01EC5BFF4F8081918111969C9360
:100510008E93FE01E05CFF4F808191810197F1F79E
:10052000FE01E05CFF4F9183808319C08E01025B66
:100530001F4FFE01E15BFF4F6081718182819381DA
:100540000E947C0ADC01CB01F8018083FE01E25BA2
:10055000FF4F80818FAF8FAD8A95F1F78FAFABE200
:10056000B0E0EBE2F0E080818D7F8C9380E090E062
:10057000A8E4B3E48BAF9CAFADAFBEAF6BAD7CADC9
:100580008DAD9EAD2BEA3AEA4AEA50E40E94520C45
:10059000DC01CB018FAB98AFA9AFBAAF6FA978AD33
:1005A00089AD9AAD20E030E040E85FE30E94580E4C
:1005B00088231CF481E08EAB91C06FA978AD89AD22
:1005C0009AAD20E030E04FE753E40E94F80D181692
:1005D0000CF07BC06BAD7CAD8DAD9EAD20E030E00E
:1005E0004AE754E40E944C0DDC01CB018AAB9BAB83
:1005F000ACABBDAB6AA97BA98CA99DA920E030E07A
:100600004AE755E40E94520CDC01CB018EA79FA75C
:10061000A8ABB9AB6EA57FA588A999A920E030E069
:1006200040E85FE30E94580E88232CF481E090E0BC
:100630009DA78CA73FC06EA57FA588A999A920E09A
:100640003FEF4FE757E40E94F80D18164CF56AA9E2
:100650007BA98CA99DA920E030E040E251E40E94F2
:10066000520CDC01CB01BC01CD010E947C0ADC01F3
:10067000CB019DA78CA70FC080E991E09BA78AA71B
:100680008AA59BA50197F1F79BA78AA78CA59DA595
:1006900001979DA78CA78CA59DA5009769F724C0FD
:1006A0006EA57FA588A999A90E947C0ADC01CB01CF
:1006B0009DA78CA78CA59DA599A788A788A599A576
:1006C0000197F1F799A788A70FC06FA978AD89ADF9
:1006D0009AAD0E947C0ADC01CB018EAB8EA98FA360
:1006E0008FA18A95F1F78FA3ABE2B0E0EBE2F0E0E7
:1006F0008081282F2F70FE01E95AFF4F8081882FBB
:1007000090E082959295907F9827807F9827822B02
:100710008C93ABE2B0E0EBE2F0E0808182608C93FE
:1007200080E090E0A0E8BFE38BA39CA3ADA3BEA3B1
:100730006BA17CA18DA19EA12BEA3AEA4AEA50E482
:100740000E94520CDC01CB018F8F98A3A9A3BAA3FE
:100750006F8D78A189A19AA120E030E040E85FE3A5
:100760000E94580E88231CF481E08E8F91C06F8DFB
:1007700078A189A19AA120E030E04FE753E40E94DC
:10078000F80D18160CF07BC06BA17CA18DA19EA169
:1007900020E030E04AE754E40E944C0DDC01CB013C
:1007A0008A8F9B8FAC8FBD8F6A8D7B8D8C8D9D8D3D
:1007B00020E030E04AE755E40E94520CDC01CB0116
:1007C0008E8B9F8BA88FB98F6E897F89888D998D2D
:1007D00020E030E040E85FE30E94580E88232CF4CC
:1007E00081E090E09D8B8C8B3FC06E897F89888DE6
:1007F000998D20E03FEF4FE757E40E94F80D18165F
:100800004CF56A8D7B8D8C8D9D8D20E030E040E233
:1008100051E40E94520CDC01CB01BC01CD010E94CD
:100820007C0ADC01CB019D8B8C8B0FC080E991E0B1
:100830009B8B8A8B8A899B890197F1F79B8B8A8B8B
:100840008C899D8901979D8B8C8B8C899D890097C4
:1008500069F724C06E897F89888D998D0E947C0AF2
:10086000DC01CB019D8B8C8B8C899D89998B888B2E
:10087000888999890197F1F7998B888B0FC06F8DC3
:1008800078A189A19AA10E947C0ADC01CB018E8FFC
:100890008E8D8F878F858A95F1F78F87ABE2B0E0D9
:1008A000EBE2F0E080818D7F8C9380E090E0A0E02F
:1008B000B0E48B879C87AD87BE876B857C858D85F3
:1008C0009E8520E030E04AE755E40E94520CDC01AE
:1008D000CB018F839887A987BA876F8178858985AF
:1008E0009A8520E030E040E85FE30E94580E8823BC
:1008F0002CF481E090E09E838D833FC06F817885EA
:1009000089859A8520E03FEF4FE757E40E94F80D74
:1009100018164CF56B857C858D859E8520E030E032
:1009200040E251E40E94520CDC01CB01BC01CD013C
:100930000E947C0ADC01CB019E838D830FC080E97D
:1009400091E09C838B838B819C810197F1F79C8341
:100950008B838D819E8101979E838D838D819E8166
:10096000009769F714C06F81788589859A850E9400
:100970007C0ADC01CB019E838D838D819E819A83CD
:10098000898389819A810197F1F79A838983C95A6A
:10099000DF4F0FB6F894DEBF0FBECDBFCF91DF9112
:1009A0001F910F910895DF93CF93CDB7DEB72E97A8
:1009B0000FB6F894DEBF0FBECDBF81E00E9462018A
:1009C00080E090E0A0E0B0E48B879C87AD87BE8795
:1009D0006B857C858D859E8520E030E04AE755E477
:1009E0000E94520CDC01CB018F839887A987BA87BC
:1009F0006F81788589859A8520E030E040E85FE363
:100A00000E94580E88232CF481E090E09E838D8311
:100A10003FC06F81788589859A8520E03FEF4FE759
:100A200057E40E94F80D18164CF56B857C858D8572
:100A30009E8520E030E040E251E40E94520CDC014F
:100A4000CB01BC01CD010E947C0ADC01CB019E835D
:100A50008D830FC080E991E09C838B838B819C8187
:100A60000197F1F79C838B838D819E8101979E83F3
:100A70008D838D819E81009769F714C06F81788581
:100A800089859A850E947C0ADC01CB019E838D8337
:100A90008D819E819A83898389819A810197F1F75B
:100AA0009A83898380E80E9462012E960FB6F8949B
:100AB000DEBF0FBECDBFCF91DF9108950F931F937F
:100AC000DF93CF93CDB7DEB7CA55D0400FB6F894B9
:100AD000DEBF0FBECDBFFE01E75AFF4F918380837B
:100AE000FE01E95AFF4F1182108275C3ABE2B0E0FC
:100AF000EBE2F0E08081482F4F70FE01E95AFF4F92
:100B000020813181FE01E75AFF4F80819181FC01F4
:100B1000E20FF31F8081807F842B8C93ABE2B0E0E7
:100B2000EBE2F0E0808181608C93ABE2B0E0EBE23D
:100B3000F0E0808182608C93FE01ED5AFF4F80E0EF
:100B400090E0A0E8BFE380839183A283B3838E010A
:100B5000015B1F4FFE01ED5AFF4F60817181828161
:100B600093812BEA3AEA4AEA50E40E94520CDC01F3
:100B7000CB01F80180839183A283B383FE01E15B03
:100B8000FF4F608171818281938120E030E040E8F5
:100B90005FE30E94580E882334F4FE01E25BFF4FAE
:100BA00081E08083E0C0FE01E15BFF4F60817181E5
:100BB0008281938120E030E04FE753E40E94F80DFA
:100BC00018160CF0C0C0FE01ED5AFF4F6081718114
:100BD0008281938120E030E04AE754E40E944C0D8A
:100BE000DC01CB01FE01E65BFF4F80839183A28392
:100BF000B3838E010A5B1F4FFE01E65BFF4F6081EE
:100C000071818281938120E030E04AE755E40E94BF
:100C1000520CDC01CB01F80180839183A283B38362
:100C2000FE01EA5BFF4F608171818281938120E048
:100C300030E040E85FE30E94580E882344F4FE0150
:100C4000EC5BFF4F81E090E09183808364C0FE0104
:100C5000EA5BFF4F608171818281938120E03FEFE9
:100C60004FE757E40E94F80D18160CF043C0FE0140
:100C7000E65BFF4F608171818281938120E030E0EB
:100C800040E251E40E94520CDC01CB018E010C5B6E
:100C90001F4FBC01CD010E947C0ADC01CB01F80191
:100CA000918380831FC0FE01EE5BFF4F80E991E0DE
:100CB00091838083FE01EE5BFF4F808191810197DC
:100CC000F1F7FE01EE5BFF4F91838083DE01AC5BA9
:100CD000BF4FFE01EC5BFF4F808191810197119620
:100CE0009C938E93FE01EC5BFF4F80819181009776
:100CF000D1F642C08E010C5B1F4FFE01EA5BFF4F35
:100D000060817181828193810E947C0ADC01CB0128
:100D1000F80191838083DE01A05CBF4FFE01EC5B94
:100D2000FF4F8081918111969C938E93FE01E05C30
:100D3000FF4F808191810197F1F7FE01E05CFF4F49
:100D40009183808319C08E01025B1F4FFE01E15B1E
:100D5000FF4F60817181828193810E947C0ADC0156
:100D6000CB01F8018083FE01E25BFF4F80818FAFF2
:100D70008FAD8A95F1F78FAFABE2B0E0EBE2F0E038
:100D800080818D7F8C9380E090E0A8E4B3E48BAF0A
:100D90009CAFADAFBEAF6BAD7CAD8DAD9EAD2BEA64
:100DA0003AEA4AEA50E40E94520CDC01CB018FABD4
:100DB00098AFA9AFBAAF6FA978AD89AD9AAD20E071
:100DC00030E040E85FE30E94580E88231CF481E085
:100DD0008EAB91C06FA978AD89AD9AAD20E030E0BF
:100DE0004FE753E40E94F80D18160CF07BC06BAD72
:100DF0007CAD8DAD9EAD20E030E04AE754E40E942A
:100E00004C0DDC01CB018AAB9BABACABBDAB6AA993
:100E10007BA98CA99DA920E030E04AE755E40E9417
:100E2000520CDC01CB018EA79FA7A8ABB9AB6EA576
:100E30007FA588A999A920E030E040E85FE30E94FF
:100E4000580E88232CF481E090E09DA78CA73FC02A
:100E50006EA57FA588A999A920E03FEF4FE757E449
:100E60000E94F80D18164CF56AA97BA98CA99DA9BA
:100E700020E030E040E251E40E94520CDC01CB0162
:100E8000BC01CD010E947C0ADC01CB019DA78CA78F
:100E90000FC080E991E09BA78AA78AA59BA501972F
:100EA000F1F79BA78AA78CA59DA501979DA78CA765
:100EB0008CA59DA5009769F724C06EA57FA588A97C
:100EC00099A90E947C0ADC01CB019DA78CA78CA567
:100ED0009DA599A788A788A599A50197F1F799A736
:100EE00088A70FC06FA978AD89AD9AAD0E947C0A22
:100EF000DC01CB018EAB8EA98FA38FA18A95F1F770
:100F00008FA3ABE2B0E0EBE2F0E08081482F4F70BE
:100F1000FE01E95AFF4F20813181FE01E75AFF4F60
:100F200080819181FC01E20FF31F8081992787FD69
:100F3000909582959295907F9827807F9827842B13
:100F40008C93ABE2B0E0EBE2F0E0808182608C93C6
:100F500080E090E0A0E8BFE38BA39CA3ADA3BEA379
:100F60006BA17CA18DA19EA12BEA3AEA4AEA50E44A
:100F70000E94520CDC01CB018F8F98A3A9A3BAA3C6
:100F80006F8D78A189A19AA120E030E040E85FE36D
:100F90000E94580E88231CF481E08E8F91C06F8DC3
:100FA00078A189A19AA120E030E04FE753E40E94A4
:100FB000F80D18160CF07BC06BA17CA18DA19EA131
:100FC00020E030E04AE754E40E944C0DDC01CB0104
:100FD0008A8F9B8FAC8FBD8F6A8D7B8D8C8D9D8D05
:100FE00020E030E04AE755E40E94520CDC01CB01DE
:100FF0008E8B9F8BA88FB98F6E897F89888D998DF5
:1010000020E030E040E85FE30E94580E88232CF493
:1010100081E090E09D8B8C8B3FC06E897F89888DAD
:10102000998D20E03FEF4FE757E40E94F80D181626
:101030004CF56A8D7B8D8C8D9D8D20E030E040E2FB
:1010400051E40E94520CDC01CB01BC01CD010E9495
:101050007C0ADC01CB019D8B8C8B0FC080E991E079
:101060009B8B8A8B8A899B890197F1F79B8B8A8B53
:101070008C899D8901979D8B8C8B8C899D8900978C
:1010800069F724C06E897F89888D998D0E947C0ABA
:10109000DC01CB019D8B8C8B8C899D89998B888BF6
:1010A000888999890197F1F7998B888B0FC06F8D8B
:1010B00078A189A19AA10E947C0ADC01CB018E8FC4
:1010C0008E8D8F878F858A95F1F78F87ABE2B0E0A1
:1010D000EBE2F0E080818D7F8C9380E090E0A0E0F7
:1010E000B0E48B879C87AD87BE876B857C858D85BB
:1010F0009E8520E030E04AE755E40E94520CDC0176
:10110000CB018F839887A987BA876F817885898576
:101110009A8520E030E040E85FE30E94580E882383
:101120002CF481E090E09E838D833FC06F817885B1
:1011300089859A8520E03FEF4FE757E40E94F80D3C
:1011400018164CF56B857C858D859E8520E030E0FA
:1011500040E251E40E94520CDC01CB01BC01CD0104
:101160000E947C0ADC01CB019E838D830FC080E945
:1011700091E09C838B838B819C810197F1F79C8309
:101180008B838D819E8101979E838D838D819E812E
:10119000009769F714C06F81788589859A850E94C8
:1011A0007C0ADC01CB019E838D838D819E819A8395
:1011B000898389819A810197F1F79A838983DE0176
:1011C000A95ABF4FFE01E95AFF4F808191810196D4
:1011D00011969C938E93FE01E95AFF4F2081318135
:1011E000FE01E75AFF4F80819181FC01E20FF31F5E
:1011F0008081882309F07ACCC65ADF4F0FB6F89465
:10120000DEBF0FBECDBFCF91DF911F910F9108952B
:10121000DF93CF9300D000D0CDB7DEB789836A8348
:101220005C834B838981882349F48A81803134F43B
:101230008A818F7080680E9462010BC08981813031
:1012400041F48A8180312CF48A818F70806C0E94F5
:1012500062018B819C810E945E050F900F900F9020
:101260000F90CF91DF910895DF93CF93CDB7DEB785
:101270002E970FB6F894DEBF0FBECDBFA7E2B0E049
:10128000E7E2F0E0808181608C93A7E2B0E0E7E2E2
:10129000F0E0808182608C93A4E2B0E0E4E2F0E0D0
:1012A00080818E7F8C93A4E2B0E0E4E2F0E0808164
:1012B0008D7F8C93A4E2B0E0E4E2F0E080818B7F4C
:1012C0008C93A9E6B0E0E9E6F0E0808181608C9340
:1012D000ADE3B0E0EDE3F0E0808181608C93789441
:1012E0000E94530080E091E00E945E0580EC0E9425
:1012F0006201E3E2F0E08081882F90E081709070DD
:10130000009799F0A8E2B0E0E8E2F0E08081816027
:101310008C93A8E2B0E0E8E2F0E0808182608C93F8
:1013200081E191E00E945E05E1CFE3E2F0E080819F
:10133000882F90E082709070009799F0A8E2B0E05A
:10134000E8E2F0E0808181608C93A8E2B0E0E8E21E
:10135000F0E080818D7F8C938DE191E00E945E05AD
:10136000C5CFE3E2F0E08081882F90E08470907038
:10137000009799F0A8E2B0E0E8E2F0E080818E7F8B
:101380008C93A8E2B0E0E8E2F0E080818D7F8C935E
:1013900089E291E00E945E05A9CF80914C01909175
:1013A0004D018130910509F0A1CF0E94D30480E066
:1013B00090E0AAEFB4E48B879C87AD87BE876B85EE
:1013C0007C858D859E8520E030E04AE755E40E94CB
:1013D000520CDC01CB018F839887A987BA876F8174
:1013E000788589859A8520E030E040E85FE30E94B7
:1013F000580E88232CF481E090E09E838D833FC0BB
:101400006F81788589859A8520E03FEF4FE757E423
:101410000E94F80D18164CF56B857C858D859E8590
:1014200020E030E040E251E40E94520CDC01CB01AC
:10143000BC01CD010E947C0ADC01CB019E838D831F
:101440000FC080E991E09C838B838B819C81019705
:10145000F1F79C838B838D819E8101979E838D8381
:101460008D819E81009769F714C06F817885898589
:101470009A850E947C0ADC01CB019E838D838D813D
:101480009E819A83898389819A810197F1F79A8352
:10149000898386E391E00E945E0510924D011092CF
:1014A0004C0124CF1F920F920FB60F9211248F93ED
:1014B0009F93AF93BF93EF93FF93DF93CF93CDB7FA
:1014C000DEB7A5E2B0E0E5E2F0E0908181E08927B7
:1014D0008C9381E090E090934D0180934C01CF91EB
:1014E000DF91FF91EF91BF91AF919F918F910F90FD
:1014F0000FBE0F901F901895EF92FF920F931F93BE
:101500007B018C0120E030E040E05FE40E94280E87
:1015100088238CF0C801B70120E030E040E05FE4B0
:101520000E94F40B0E94880E9B01AC0120503040B9
:101530004040504806C0C801B7010E94880E9B0178
:10154000AC01B901CA011F910F91FF90EF9008956E
:10155000A0E0B0E0EEEAFAE00C948210DC012B018E
:10156000FA019C91923008F439C1EB0188818230F4
:1015700008F433C1943069F4843009F02FC1119616
:101580009C9111978981981709F428C1A3E4B1E0CF
:1015900025C1843009F421C18230A9F4923009F0C8
:1015A0001DC19A01AD0188E0EA010990AE01E9018F
:1015B00009929E018150C1F7E201898111969C91A7
:1015C0008923818308C1923009F407C112962D90B6
:1015D0003C901397EB018A819B811496AD90BD904E
:1015E000CD90DC901797EC80FD800E811F819101DA
:1015F000281B390BB90137FF04C066277727621B08
:10160000730B603271050CF061C0121613066CF595
:1016100037014801062E04C0969487947794679406
:101620000A94D2F721E030E040E050E004C0220FFD
:10163000331F441F551F6A95D2F721503040404058
:1016400050402E213F2140235123211531054105D2
:10165000510521F021E030E040E050E079018A01BD
:10166000E628F728082919293CC0232BD1F1260E9A
:10167000371E35014601062E04C096948794779450
:1016800067940A94D2F721E030E040E050E004C0D3
:10169000220F331F441F551F6A95D2F72150304047
:1016A000404050402A213B214C215D21211531052C
:1016B0004105510521F021E030E040E050E05901C2
:1016C0006A01A628B728C828D9280BC08215930517
:1016D0002CF01C01AA24BB24650103C0EE24FF24C6
:1016E000870111969C91D20111968C91981709F45B
:1016F00045C0992339F0A80197012A193B094C09E3
:101700005D0906C0A60195012E193F09400B510B3A
:1017100057FD08C011823382228224833583468399
:1017200057831DC081E081833382228288279927D5
:10173000DC01821B930BA40BB50B84839583A683DA
:10174000B7830DC0220F331F441F551F24833583D9
:101750004683578382819381019793838283248177
:10176000358146815781DA01C9010197A109B10983
:101770008F5F9F4FAF4FBF4328F30BC091833382DE
:101780002282EA0CFB1C0C1D1D1DE482F5820683DF
:10179000178383E08083248135814681578157FFF9
:1017A0001AC0C901AA2797FDA095BA2F8170907021
:1017B000A070B0705695479537952795822B932B3F
:1017C000A42BB52B84839583A683B78382819381D1
:1017D000019693838283DF0101C0D201CD01CDB791
:1017E000DEB7E2E10C949E10A0E2B0E0EAEFFBE08D
:1017F0000C948E1069837A838B839C832D833E8324
:101800004F835887E9E0EE2EF12CEC0EFD1ECE0141
:101810000196B7010E94B10F8E010F5E1F4FCE01DE
:101820000596B8010E94B10F8A8991E089278A8BB9
:10183000C701B801AE01475E5F4F0E94A80A0E942F
:10184000DC0EA096E6E00C94AA10A0E2B0E0EBE279
:10185000FCE00C948E1069837A838B839C832D83A8
:101860003E834F835887F9E0EF2EF12CEC0EFD1EDE
:10187000CE010196B7010E94B10F8E010F5E1F4F7E
:10188000CE010596B8010E94B10FC701B801AE01A3
:10189000475E5F4F0E94A80A0E94DC0EA096E6E019
:1018A0000C94AA10A0E2B0E0E8E5FCE00C948210F1
:1018B00069837A838B839C832D833E834F835887F0
:1018C000CE010196BE01675F7F4F0E94B10FCE012E
:1018D0000596BE016F5E7F4F0E94B10F99859230D1
:1018E00088F089898230C8F0943019F4823051F43C
:1018F00004C0843029F4923081F483E491E0C6C0BE
:10190000923049F420E09A858A89981321E02A8749
:10191000CE010996BBC0823049F420E09A858A89BD
:10192000981321E02A8BCE014196B0C02D843E84CD
:101930004F8458886D887E888F88988CEE24FF2489
:101940008701AA24BB24650140E050E060E070E01C
:10195000E0E0F0E0C10181709070892BE9F0E60CC5
:10196000F71C081D191D9A01AB012A0D3B1D4C1DCA
:101970005D1D80E090E0A0E0B0E0E614F70408050B
:10198000190520F481E090E0A0E0B0E0BA01A901DF
:10199000480F591F6A1F7B1FAA0CBB1CCC1CDD1CE7
:1019A00097FE08C081E090E0A0E0B0E0A82AB92A44
:1019B000CA2ADB2A3196E032F10549F0660C771C21
:1019C000881C991C5694479437942794C3CFFA8562
:1019D000EA892B893C898B859C85280F391F2E5FCE
:1019E0003F4F17C0CA0181709070892B61F0169526
:1019F0000795F794E79480E090E0A0E0B0E8E82A4B
:101A0000F92A0A2B1B2B76956795579547952F5FDB
:101A10003F4F77FDE7CF0CC0440F551F661F771F60
:101A200017FD4160EE0CFF1C001F111F21503040BC
:101A3000403090E0590790E0690790E4790760F33F
:101A40002B8F3C8FDB01CA018F779070A070B07034
:101A500080349105A105B10561F447FD0AC0E11488
:101A6000F1040105110529F0405C5F4F6F4F7F4F76
:101A700040781A8EFE1711F081E08A8F4D8F5E8FAD
:101A80006F8F78A383E0898FCE0149960E94DC0E88
:101A9000A096E2E10C949E10A8E1B0E0E2E5FDE042
:101AA0000C948A1069837A838B839C832D833E8375
:101AB0004F835887B9E0EB2EF12CEC0EFD1ECE01C2
:101AC0000196B7010E94B10F8E010F5E1F4FCE012C
:101AD0000596B8010E94B10F2985223008F47EC016
:101AE0003989323010F4B8017CC08A859A898927F7
:101AF0008A87243011F0223031F4231709F06EC0A8
:101B000063E471E06EC0343039F41D861E861F8692
:101B1000188A1C861B8604C0323021F484E0898731
:101B2000B7015FC02B853C858B899C89281B390BAD
:101B30003C872B87ED84FE840F851889AD88BE888D
:101B4000CF88D88CEA14FB040C051D0540F4EE0C7C
:101B5000FF1C001F111F215030403C872B8720E0C5
:101B600030E040E050E080E090E0A0E0B0E460E0F1
:101B700070E0EA14FB040C051D0540F0282B392BFE
:101B80004A2B5B2BEA18FB080C091D09B695A79593
:101B900097958795EE0CFF1C001F111F6F5F7F4FFD
:101BA0006F31710531F7DA01C9018F779070A0703C
:101BB000B07080349105A105B10561F427FD0AC01C
:101BC000E114F1040105110529F0205C3F4F4F4F4E
:101BD0005F4F20782D873E874F87588BBE01675F08
:101BE0007F4FCB010E94DC0E6896EAE00C94A610B1
:101BF000A8E1B0E0EEEFFDE00C948E1069837A83EB
:101C00008B839C832D833E834F83588789E0E82E06
:101C1000F12CEC0EFD1ECE010196B7010E94B10F12
:101C20008E010F5E1F4FCE010596B8010E94B10FC5
:101C30008985823040F08989823028F0C701B80157
:101C40000E94291001C08FEF6896E6E00C94AA105C
:101C5000A8E1B0E0EEE2FEE00C948E1069837A8396
:101C60008B839C832D833E834F83588789E0E82EA6
:101C7000F12CEC0EFD1ECE010196B7010E94B10FB2
:101C80008E010F5E1F4FCE010596B8010E94B10F65
:101C90008985823040F08989823028F0C701B801F7
:101CA0000E94291001C08FEF6896E6E00C94AA10FC
:101CB000A8E1B0E0EEE5FEE00C948E1069837A8333
:101CC0008B839C832D833E834F83588789E0E82E46
:101CD000F12CEC0EFD1ECE010196B7010E94B10F52
:101CE0008E010F5E1F4FCE010596B8010E94B10F05
:101CF0008985823040F08989823028F0C701B80197
:101D00000E94291001C081E06896E6E00C94AA10B8
:101D1000ACE0B0E0EEE8FEE00C94921069837A83C8
:101D20008B839C83CE010196BE016B5F7F4F0E9427
:101D3000B10F8D81823061F1823050F1843021F415
:101D40008E81882351F12EC02F81388537FD20C028
:101D50006E812F3131051CF06623F9F023C08EE12E
:101D600090E0821B930B29853A854B855C8504C0E6
:101D700056954795379527958A95D2F76623B1F002
:101D800050954095309521953F4F4F4F5F4F0EC076
:101D900020E030E040E050E009C02FEF3FEF4FEF90
:101DA0005FE704C020E030E040E050E8B901CA013C
:101DB0002C96E2E00C94AE10DF92EF92FF920F931C
:101DC0001F93FC01E480F58006811781D18080811A
:101DD000823048F480E090E0A0E1B0E0E82AF92AFF
:101DE0000A2B1B2BA5C0843009F49FC0823021F43C
:101DF000EE24FF24870105C0E114F104010511055B
:101E000019F4E0E0F0E096C0628173819FEF6238E0
:101E100079070CF05BC022E83FEF261B370B2A3115
:101E200031052CF020E030E040E050E02AC0B8015D
:101E3000A701022E04C076956795579547950A9499
:101E4000D2F781E090E0A0E0B0E004C0880F991FD5
:101E5000AA1FBB1F2A95D2F70197A109B1098E21AC
:101E60009F21A023B1230097A105B10521F081E0B6
:101E700090E0A0E0B0E09A01AB01282B392B4A2B6F
:101E80005B2BDA01C9018F779070A070B07080343D
:101E90009105A105B10539F427FF09C0205C3F4F2A
:101EA0004F4F5F4F04C0215C3F4F4F4F5F4FE0E00B
:101EB000F0E02030A0E03A07A0E04A07A0E45A078B
:101EC00010F0E1E0F0E079018A0127C06038710587
:101ED00064F5FB01E158FF4FD801C7018F7790707F
:101EE000A070B07080349105A105B10539F4E7FE0A
:101EF0000DC080E490E0A0E0B0E004C08FE390E08B
:101F0000A0E0B0E0E80EF91E0A1F1B1F17FF05C076
:101F100016950795F794E794319687E016950795FF
:101F2000F794E7948A95D1F705C0EE24FF24870142
:101F3000EFEFF0E06E2F679566276795902F9F77FC
:101F4000D794DD24D7948E2F8695492F462B582F72
:101F50005D29B701CA011F910F91FF90EF90DF90AB
:101F60000895FC01DB01408151812281622F6F774E
:101F700070E0221F2227221F9381892F880F822B36
:101F8000282F30E0991F9927991F11969C9311973C
:101F900021153105A9F5411551056105710511F4AA
:101FA00082E037C082E89FEF13969C938E9312973E
:101FB0009A01AB0167E0220F331F441F551F6A953A
:101FC000D1F783E08C930DC0220F331F441F551FA0
:101FD00012968D919C911397019713969C938E93D3
:101FE0001297203080E0380780E0480780E45807E7
:101FF00058F314962D933D934D935C931797089542
:102000002F3F310579F4411551056105710519F42A
:1020100084E08C93089564FF03C081E08C9312C028
:102020001C9210C02F57304013963C932E9312975A
:1020300083E08C9387E0440F551F661F771F8A95B6
:10204000D1F7706414964D935D936D937C931797BD
:1020500008951F93DC01FB019C91923008F447C066
:102060008081823008F443C0943051F411961C9161
:10207000843099F58181682F70E0611B71093FC040
:10208000843021F0923031F48230B9F1818188239B
:1020900089F12DC011961C9111978230F1F0818148
:1020A0001817D9F412962D913C9113978281938140
:1020B0008217930794F028173907BCF014968D9176
:1020C0009D910D90BC91A02D248135814681578131
:1020D000281739074A075B0718F4112341F00AC093
:1020E00082179307A407B50740F4112319F061E0A4
:1020F00070E005C06FEF7FEF02C060E070E0CB01E1
:102100001F9108952F923F924F925F926F927F920C
:102110008F929F92AF92BF92CF92DF92EF92FF92F7
:102120000F931F93CF93DF93CDB7DEB7CA1BDB0BA3
:102130000FB6F894DEBF0FBECDBF09942A88398848
:1021400048885F846E847D848C849B84AA84B9844F
:10215000C884DF80EE80FD800C811B81AA81B9815B
:10216000CE0FD11D0FB6F894DEBF0FBECDBFED016F
:062170000895F894FFCF72
:10217600436974792074616E6B205374617475734E
:102186000032204D6F746F72206F6E200031204D2B
:102196006F746F72206F6E200032204D6F746F72F5
:1021A600206F6666200032204D6F746F72206F4F6D
:0C21B6004F2000000000000000000000AE
:00000001FF
